:1000000008090020510C0000AD0C0000B50C0000E8
:10001000BD0C0000C50C0000AD0C0000000000008D
:100020000000000000000000000000002D11000092
:10003000AD0C000000000000AD0C000065100000D9
:10004000AD0C0000AD0C0000AD0C0000AD0C0000CC
:10005000AD0C0000AD0C0000AD0C0000AD0C0000BC
:10006000AD0C0000AD0C0000AD0C0000AD0C0000AC
:10007000AD0C0000AD0C0000AD0C0000AD0C00009C
:10008000AD0C0000AD0C0000AD0C0000AD0C00008C
:10009000AD0C0000AD0C0000AD0C0000AD0C00007C
:1000A000AD0C0000AD0C0000AD0C0000AD0C00006C
:1000B000AD0C0000AD0C000098B500AF234BDB7D0C
:1000C000012B02D0022B25D03DE0214A4FF0000346
:1000D0004FF00004C2E906341C4B9B68012B2FD162
:1000E0001C4BD3E90C014FF000024FF0000301F06C
:1000F000C7FA0346002B00D122E0144B0222DA7526
:10010000124B00229A81124A4FF00003124CC2E9AE
:10011000063415E00E4A4FF000030F4CC2E90634D6
:100120000A4B9B89B3F57A7F0CD3084B0122DA7511
:10013000074A4FF000034FF00004C2E9063401E023
:1001400000BF00E000BF00BF98BD00BF100000204E
:1001500080000020400000200000F03F98B500AF74
:10016000224B5B7E012B02D0022B24D03CE0204AA4
:100170004FF000034FF00004C2E908341B4B9B68AA
:10018000012B2ED11B4BD3E90C014FF000021A4B6F
:1001900001F076FA0346002B00D122E0134B022235
:1001A0005A76124B0022DA81114A4FF00003124CAA
:1001B000C2E9083415E00E4A4FF000030E4CC2E9C4
:1001C00008340A4BDB89B3F5487F0CD3074B012277
:1001D0005A76074A4FF000034FF00004C2E9083492
:1001E00001E000BF00E000BF00BF98BD100000208C
:1001F00080000020400000200000F03F98B500AFD4
:10020000224BDB7E012B02D0022B24D03CE0204A83
:100210004FF000034FF00004C2E90A341B4B9B6807
:10022000012B2ED11B4BD3E90C014FF000021A4BCE
:1002300001F0FEF90346002B00D122E0134B02220D
:10024000DA76124B00221A82114A4FF00003134C47
:10025000C2E90A3415E00E4A4FF000030F4CC2E920
:100260000A340A4B1B8AB3F5FA7F0CD3074B0122E1
:10027000DA76074A4FF000034FF00004C2E90A346F
:1002800001E000BF00E000BF00BF98BD10000020EB
:100290008000002040000020000008400000F03FE7
:1002A000F0B583B000AF4E4BDB7F013B032B00F278
:1002B000938001A252F823F0C9020000DF0200007F
:1002C0005D0300009B030000454B0222DA77454A9C
:1002D0004FF000034FF00004C2E90C347CE0414AC7
:1002E0004FF000034FF00004C2E90C343C4B9B6814
:1002F000012B6CD13C4BD3E90C014FF000024FF0C5
:10030000000301F0BDF90346002B00D15FE0364B3E
:10031000D3E90E01324B18CB1A46234600F07EFF7C
:1003200003460C461D4624F000464FF000024FF0F5
:1003300080432846314601F085F90346002B00D161
:1003400045E0274B0422DA77254B00225A82254AC2
:100350004FF00003254CC2E90C3438E0214A4FF03D
:1003600000034FF00004C2E90C341D4B5B8AC72B1D
:100370002FD91B4B0122DA77194B9B687B60184BF6
:1003800000229A60164B93F82430002B01D000F025
:100390002FF8134A7B6893601BE0124A4FF000036A
:1003A000124CC2E90C340E4B5B8A40F2DB52934292
:1003B00011D90B4B0322DA77094B00225A82094AE2
:1003C0004FF000034FF00004C2E90C3403E000BF1B
:1003D00002E000BF00E000BF00BF0C37BD46F0BD2B
:1003E0001000002080000020400000200000F03FAE
:1003F00090B583B000AF6A4B93F82330013B042BD8
:1004000000F2C98001A252F823F000BF21040000CD
:10041000410400006F0400000D05000051050000BC
:100420005F4B9B68002B40F0B1805D4B052283F849
:1004300023205C4A4FF000035B4CC2E90434A5E082
:10044000584A4FF000034FF00004C2E90434544B03
:100450009B68022B40F09C80514B042283F82320A0
:10046000504A4FF00003504CC2E9043490E04D4A2A
:100470004FF000034FF00004C2E90434484B93F8F6
:100480002730C72B40F28680454B012283F823207A
:10049000434B9B687B60424B01229A60404B1B7E22
:1004A000002B01D0FFF708FE3D4A7B6893603C4B70
:1004B0009B687B603A4B01229A60394B9B7E002BF4
:1004C00001D0FFF74BFE364A7B689360344B9B6844
:1004D0007B60334B01229A60314B1B7F002B01D094
:1004E000FFF78CFE2E4A7B6893602D4B9B687B60E8
:1004F0002B4B01229A602A4B93F82030002B01D01D
:10050000FFF7CEFE264A7B68936043E0254A4FF012
:100510000003254CC2E90434244BD3E908014FF011
:100520000002214B01F084F80346002B00D132E099
:100530001B4B032283F82320194B002283F827202A
:10054000184A4FF000034FF00004C2E9043422E0DF
:10055000144A4FF00003144CC2E90434134BD3E99E
:100560000A014FF00002104B01F062F80346002B25
:1005700000D110E00A4B022283F82320094A4FF0F1
:1005800000034FF00004C2E9043404E000BF02E0BD
:1005900000BF00E000BF00BF0C37BD4690BD00BFEC
:1005A00010000020800000200000F03F40000020EC
:1005B00090B583B000AF3C4B5B7F013B032B6FD802
:1005C00001A252F823F000BFD9050000EF0500009A
:1005D0001906000059060000334B02225A77334AAD
:1005E0004FF000034FF00004C2E9023458E02F4AF4
:1005F0004FF000034FF00004C2E902342A4B9B681D
:10060000032B4AD1284B04225A77284A4FF0000383
:10061000274CC2E9023440E0244A4FF000034FF077
:100620000004C2E90234204B93F82630C72B36D998
:100630001D4B01225A771C4B9B687B601A4B022290
:100640009A60194B93F82430002B01D0FFF7D0FEAD
:10065000154A7B68936022E0144A4FF00003144C63
:10066000C2E90234134BD3E906014FF00002104BEC
:1006700000F0DEFF0346002B00D111E00A4B0322FD
:100680005A77094B002283F82620084A4FF00003CE
:100690004FF00004C2E9023402E000BF00E000BFF6
:1006A00000BF0C37BD4690BD100000208000002028
:1006B0000000F03F40000020B0B582B000AFA34B77
:1006C00093F82530FF2B07D0A04B93F8253001334A
:1006D000DAB29E4B83F825209C4B9B8940F2FE3278
:1006E000934205D8994B9B8901339AB2974B9A81D3
:1006F000964BDB8940F2FE32934205D8934BDB895F
:1007000001339AB2914BDA81904B1B8AB3F5FF7F8C
:1007100005D88E4B1B8A01339AB28C4B1A828B4BB5
:1007200093F82630FF2B07D0884B93F826300133FF
:10073000DAB2864B83F82620844B5B8A40F2FE7245
:10074000934205D8814B5B8A01339AB27F4B5A8220
:100750007E4B93F82730FF2B07D07C4B93F8273044
:100760000133DAB2794B83F82720784B4FF0FF3210
:100770009A60764B1B7D002B40F09A80734B0122D0
:100780001A75724B012283F82420704B93F82330A2
:10079000022B0AD06D4B022283F823206C4A4FF0C3
:1007A00000034FF00004C2E90434684B01229A753B
:1007B000664B5B7D042B09D0644B04225A75644A56
:1007C0004FF000034FF08044C2E900345F4B012238
:1007D0009A775E4B5B7F022B09D05C4B02225A77E3
:1007E0005B4A4FF000034FF00004C2E90234574B5C
:1007F000012283F82020554BDB7F022B09D0534B7D
:100800000222DA77524A4FF000034FF00004C2E9A7
:100810000C344E4B01221A764C4BDB7D012B09D058
:100820004A4B0122DA754A4A4FF000034FF00004A8
:10083000C2E90634454B01229A76444B5B7E012B7C
:1008400009D0424B01225A76414A4FF000034FF043
:100850000004C2E908343D4B01221A773B4BDB7E92
:10086000012B09D0394B0122DA76394A4FF00003C7
:100870004FF00004C2E90A34344B012283F82220ED
:10088000324A4FF00003334CC2E900342F4B93F847
:100890002130022B00F056812C4B022283F82120BC
:1008A0002B4A4FF000034FF00004C2E90E3449E137
:1008B000264B93F82430002B01D0FFF799FD234BF2
:1008C0009B7D002B00F0C480204B5B7D013B052B02
:1008D00000F2BE8001A252F823F000BFF50800002C
:1008E0000B09000065090000A3090000DD090000F4
:1008F000090A0000154B04225A75154A4FF00003EF
:100900004FF08044C2E90034A2E0114A4FF00003E6
:10091000114CC2E90034114BD3E904014FF000023D
:100920000F4B00F085FE0346002B00D190E0074BF3
:1009300003225A75054B002283F82520044A4FF004
:1009400000034FF08044C2E9003481E01000002031
:100950008000002000805640000008404000002039
:100960000000F03F794A4FF000034FF08044C2E9A5
:100970000034774B93F82530C72B66D9744B01228E
:100980005A75734B9B687B60714B03229A60704B66
:100990009B7F002B01D0FFF70BFE6D4A7B689360B5
:1009A00053E06A4A4FF000034FF08044C2E900343C
:1009B000684BD3E900014FF00002674B00F038FEAE
:1009C0000346002B00D143E0614B06225A755F4A73
:1009D0004FF00003604CC2E9003439E05B4A4FF04D
:1009E00000034FF08044C2E90034594B93F825309E
:1009F000C72B2CD9564B02225A75544A4FF000038C
:100A0000564CC2E9003422E0504A4FF00003524CE9
:100A1000C2E900344F4BD3E902014FF000024E4BC4
:100A200000F006FE0346002B00D111E0484B0522E2
:100A30005A75474B002283F82520444A4FF00003A3
:100A40004FF08044C2E9003402E000BF00E000BF84
:100A50003F4B9B7F002B01D0FFF7AAFD3C4B93F847
:100A60002030002B01D0FFF71BFC394B1B7E002BE5
:100A700001D0FFF721FB364B9B7E002B01D0FFF707
:100A80006DFB334B1B7F002B01D0FFF7B7FB304BC7
:100A900093F82230002B55D02D4B93F82130012BA9
:100AA00002D0022B27D04DE0284A4FF000032A4CF9
:100AB000C2E90E34274BD3E90E45254BD3E900019B
:100AC0004FF00002244B00F0ABFB02460B462046E1
:100AD000294600F0D5FD0346002B00D132E01C4B27
:100AE000022283F82120194A4FF000034FF000043E
:100AF000C2E90E3426E0154A4FF000034FF000041F
:100B0000C2E90E34134BD3E90E45114BD3E9000172
:100B10004FF00002104B00F081FB02460B462046CE
:100B2000294600F08FFD0346002B00D109E0084B59
:100B3000012283F82120054A4FF00003064CC2E948
:100B40000E3400BF00BF0837BD46B0BD8000002096
:100B500010000020400000200000F03F000008408E
:100B600080B500AF334B00221A60282200213248A2
:100B700001F00EF840220021304801F009F840222F
:100B800000212F4801F004F82B4B4FF0FF329A6000
:100B9000294B002283F82420274B002283F82320AE
:100BA000254B002283F82720234B00229A77224BE3
:100BB00000225A77204B002283F826201E4B002269
:100BC0009A751D4B00225A751B4B002283F8252075
:100BD000194B002283F82220174B002283F8212092
:100BE000154B00221A76144B0022DA75124B0022A4
:100BF0009A81114B00229A760F4B00225A760E4BA7
:100C00000022DA810C4B00221A770B4B0022DA7695
:100C1000094B00221A82084B002283F82020064B41
:100C20000022DA77044B00225A82034B00221A7505
:100C300000BF80BD380000201000002040000020D0
:100C40008000002080B400AF00BFBD4680BC70476C
:100C500080B582B000AF104B7B60104B3B6007E06B
:100C60003B681A1D3A607A68111D796012681A6033
:100C70003B680B4A9342F3D30A480B494FF00002FA
:100C80008842B8BF40F8042BFADB00F087FA00BFB7
:100C90000837BD4680BD00BF301C000000000020AA
:100CA0000400002008000020C800002080B400AF2D
:100CB000FEE700BF80B400AFFEE700BF80B400AF26
:100CC000FEE700BF80B400AFFEE700BF80B485B090
:100CD00000AF78603960534BFB603B68032B00F238
:100CE0009A8001A252F823F0F90C0000010E0000D6
:100CF000070E00000D0E00007B68162B00F28A80A4
:100D000001A252F823F000BF650D00006B0D00003A
:100D1000730D0000790D0000810D0000870D0000AB
:100D20008F0D0000950D00009D0D0000A50D000029
:100D3000AB0D0000B10D0000B70D0000BD0D0000AF
:100D4000C50D0000CB0D0000D30D0000D90D000033
:100D5000DF0D0000E50D0000EB0D0000F10D0000BF
:100D6000F70D0000304BFB6049E04FF4E113FB60EE
:100D700045E02E4BFB6042E04FF41613FB603EE073
:100D80002B4BFB603BE04FF46113FB6037E0294BDA
:100D9000FB6034E04FF47A13FB6030E04FF49603CD
:100DA000FB602CE0244BFB6029E0244BFB6026E039
:100DB000234BFB6023E0234BFB6020E04FF4E10377
:100DC000FB601CE0204BFB6019E04FF4FA03FB6072
:100DD00015E01E4BFB6012E0124BFB600FE01C4B5A
:100DE000FB600CE01B4BFB6009E01B4BFB6006E06B
:100DF0001A4BFB6003E04FF47A03FB6000BF09E08D
:100E0000084BFB6007E0164BFB6004E047F23053F1
:100E1000FB6000E000BFFB6818461437BD4680BC8D
:100E2000704700BF001BB70040420F0080841E00C7
:100E3000999E360000093D00404B4C0000204E00BA
:100E4000808D5B0000C05D0000127A0080969800E3
:100E50000080BB00C0E8CE00647ADA000024F40011
:100E6000C0C62D0080B582B000AF414B1B6E7B60C9
:100E70003F4B1B6E3B603B68002B3ADA3B6803F448
:100E80000063002B0FD07B689B0903F00F023B68C7
:100E90001B0903F0070319461046FFF717FF024628
:100EA000344B1A6002E0334B334A1A607B6803F418
:100EB0008003002B57D03B6803F40063002B0BD05A
:100EC0002C4B1A683B68DB0D03F03F030133B2FB88
:100ED000F3F3284A136046E0264B1A683B68DB0DA3
:100EE00003F03F030133B2FBF3F35B08214A1360C5
:100EF00039E07B6803F40063002B0FD07B689B090B
:100F000003F00F027B681B0903F003031946104628
:100F1000FFF7DCFE0246174B1A6002E0154B164A3B
:100F20001A607B6803F48003002B1CD07B6803F4F9
:100F30000063002B0BD00F4B1A687B68DB0D03F0AE
:100F40000F030133B2FBF3F30A4A13600BE0094BC2
:100F50001A687B68DB0D03F00F030133B2FBF3F378
:100F60005B08044A136000BF0837BD4680BD00BF60
:100F700000E00F40000000200084D71780B400AFCD
:100F80004FF0FF331846BD4680BC704780B483B035
:100F900000AF03463960FB7197F90730002B0BDA7D
:100FA0000D49FB7903F00F03043B3A68D2B25201BA
:100FB000D2B20B441A7609E0084997F907303A682B
:100FC000D2B25201D2B20B4483F8002300BF0C37D7
:100FD000BD4680BC704700BF00ED00E000E100E0CE
:100FE00080B582B000AF78607B68013BB3F1807F51
:100FF00001D301230FE00A4A7B68013B53600721BC
:101000004FF0FF30FFF7C2FF054B00229A60044B00
:1010100007221A60002318460837BD4680BD00BF6E
:1010200010E000E080B500AFBFF34F8FBFF36F8FCC
:101030000A4B1A680A4B1B689A4202D3074B0022DC
:101040001A60064B1B685A1C04490A60002B03D126
:1010500072B600F07FF862B600BF80BDC400002009
:10106000C0000020EFF3008001B5024800F04AF80C
:1010700000BF00BF2510000080B584B000AF7860CD
:101080001C4B1B68184600F0BBFB034679681846EA
:1010900000F00EFC0346184600F05AFD0346FB60C4
:1010A000FB68B3F1807F18D3F86800F0A9FB034612
:1010B0001149184600F0B0FC0346184600F048FD00
:1010C000034601330D4A13600C4B1B68FA68B2FBF0
:1010D000F3F31846FFF784FF05E0084B00221A607F
:1010E000F868FFF77DFF064B00221A6000BF10373B
:1010F000BD4680BD00000020FFFF7F4BC0000020E8
:10110000C400002003B488B00FF2100006904FF026
:10111000807007907FF006008646704703BC8047CA
:10112000BFF36F8F00DFFEE700BF00BF1EF0040FAC
:101130000CBFEFF30880EFF30980816911F8020C0E
:1011400000B104E008B003BC80F300880847FEE764
:1011500000BF00BF80B500AF0E4B1B785A1CD1B248
:101160000C4A1170002B09D00B4B01221A60094B5D
:101170001B78013BDAB2074B1A7009E062B6FFF741
:101180009BFA72B6034B1B78013BDAB2014B1A7023
:1011900080BD00BF0C0000200800002080B584B096
:1011A00000AF0123FB71184BFB60184BBB60FFF7CE
:1011B00059FE174B1B6800221A60FFF7D1FCF86834
:1011C000FFF75AFF124B1B681B68002B0CBF012353
:1011D0000023DBB2FB7162B662B608E00C4B1B6801
:1011E0001B68002B0CBF01230023DBB2FB71FB79D2
:1011F000DBB2002BF2D1FFF725FD72B600231846B3
:101200001037BD4680BD00BF0AD7233C0000C8424E
:101210002C1C000081F0004102E000BF83F000437D
:1012200030B54FEA41044FEA430594EA050F08BF81
:1012300090EA020F1FBF54EA000C55EA020C7FEA45
:10124000645C7FEA655C00F0E2804FEA5454D4EBC2
:101250005555B8BF6D420CDD2C4480EA020281EA8C
:10126000030382EA000083EA010180EA020281EAC4
:101270000303362D88BF30BD11F0004F4FEA013116
:101280004FF4801C4CEA113102D0404261EB410125
:1012900013F0004F4FEA03334CEA133302D05242AB
:1012A00063EB430394EA050F00F0A780A4F1010467
:1012B000D5F1200E0DDB02FA0EFC22FA05F28018A1
:1012C00041F1000103FA0EF2801843FA05F3594187
:1012D0000EE0A5F120050EF1200E012A03FA0EFC06
:1012E00028BF4CF0020C43FA05F3C01851EBE37130
:1012F00001F0004507D54FF0000EDCF1000C7EEB4D
:1013000000006EEB0101B1F5801F1BD3B1F5001F8A
:101310000CD349085FEA30004FEA3C0C04F10104A9
:101320004FEA445212F5800F80F09A80BCF1004FD2
:1013300008BF5FEA500C50F1000041EB045141EA54
:10134000050130BD5FEA4C0C404141EB010111F455
:10135000801FA4F10104E9D191F0000F04BF014600
:101360000020B1FA81F308BF2033A3F10B03B3F1DE
:1013700020020CDA0C3208DD02F1140CC2F10C026E
:1013800001FA0CF021FA02F10CE002F11402D8BFCC
:10139000C2F1200C01FA02F120FA0CFCDCBF41EA98
:1013A0000C019040E41AA2BF01EB0451294330BD67
:1013B0006FEA04041F3C1CDA0C340EDC04F1140444
:1013C000C4F1200220FA04F001FA02F340EA03001B
:1013D00021FA04F345EA030130BDC4F10C04C4F161
:1013E000200220FA02F001FA04F340EA0300294641
:1013F00030BD21FA04F0294630BD94F0000F83F48B
:10140000801306BF81F480110134013D4EE77FEA6D
:10141000645C18BF7FEA655C29D094EA050F08BFB9
:1014200090EA020F05D054EA000C04BF194610469A
:1014300030BD91EA030F1EBF0021002030BD5FEADE
:10144000545C05D14000494128BF41F0004130BD06
:1014500014F580043CBF01F5801130BD01F000455A
:1014600045F0FE4141F470014FF0000030BD7FEACD
:10147000645C1ABF194610467FEA655C1CBF0B46C8
:10148000024650EA013406BF52EA033591EA030FDF
:1014900041F4002130BD00BF90F0000F04BF0021D7
:1014A000704730B54FF4806404F132044FF000050A
:1014B0004FF0000150E700BF90F0000F04BF002183
:1014C000704730B54FF4806404F1320410F00045E9
:1014D00048BF40424FF000013EE700BF42004FEAE4
:1014E000E2014FEA31014FEA02701FBF12F07F4361
:1014F00093F07F4F81F06051704792F0000F14BF5E
:1015000093F07F4F704730B54FF4607401F00045A1
:1015100021F0004120E700BF50EA010208BF7047F8
:1015200030B54FF000050AE050EA010208BF7047ED
:1015300030B511F0004502D5404261EB41014FF456
:10154000806404F132045FEA915C3FF4DCAE4FF05A
:1015500003025FEADC0C18BF03325FEADC0C18BF41
:10156000033202EBDC02C2F1200300FA03FC20FA92
:1015700002F001FA03FE40EA0E0021FA02F11444DF
:10158000C1E600BF4FF0FF3C06E000BF4FF0010C8A
:1015900002E000BF4FF0010C4DF804CD4FEA410CC2
:1015A0007FEA6C5C4FEA430C18BF7FEA6C5C1BD08F
:1015B00001B050EA410C0CBF52EA430C91EA030F10
:1015C00002BF90EA020F0020704710F1000F91EA6D
:1015D000030F58BF994208BF90422CBFD8176FEA3B
:1015E000E37040F0010070474FEA410C7FEA6C5C09
:1015F00002D150EA013C07D14FEA430C7FEA6C5C10
:10160000D6D152EA033CD3D05DF8040B704700BF3B
:101610008446104662468C461946634600E000BF89
:1016200001B5FFF7B7FF002848BF10F1000F01BD5B
:101630004DF808EDFFF7F4FF0CBF012000205DF826
:1016400008FB00BF4DF808EDFFF7EAFF34BF0120AB
:1016500000205DF808FB00BF4DF808EDFFF7E0FF44
:1016600094BF012000205DF808FB00BF4DF808ED95
:10167000FFF7CEFF94BF012000205DF808FB00BFFC
:101680004DF808EDFFF7C4FF34BF012000205DF8DE
:1016900008FB00BF80F0004002E000BF81F0004185
:1016A00042001FBF5FEA410392EA030F7FEA226C08
:1016B0007FEA236C6AD04FEA1262D2EB1363C1BF98
:1016C000D218414048404140B8BF5B42192B88BF07
:1016D000704710F0004F40F4000020F07F4018BF2A
:1016E000404211F0004F41F4000121F07F4118BF4A
:1016F000494292EA030F3FD0A2F1010241FA03FCF2
:1017000010EB0C00C3F1200301FA03F100F00043D9
:1017100002D5494260EB4000B0F5000F13D3B0F1A1
:10172000807F06D340084FEA310102F10102FE2A10
:1017300051D2B1F1004F40EBC25008BF20F0010080
:1017400040EA03007047490040EB000010F4000F2E
:10175000A2F10102EDD1B0FA80FCACF1080CB2EBC1
:101760000C0200FA0CF0AABF00EBC2505242184320
:10177000BCBFD0401843704792F0000F81F40001C5
:1017800006BF80F400000132013BB5E74FEA410398
:101790007FEA226C18BF7FEA236C21D092EA030F04
:1017A00004D092F0000F08BF0846704790EA010F7E
:1017B0001CBF0020704712F07F4F04D1400028BFAB
:1017C00040F00040704712F100723CBF00F500008D
:1017D000704700F0004343F0FE4040F400007047C3
:1017E0007FEA226216BF08467FEA2363014642026F
:1017F00006BF5FEA412390EA010F40F48000704782
:101800004FF0000304E000BF10F0004348BF404227
:101810005FEA000C08BF704743F0964301464FF063
:1018200000001CE050EA010208BF70474FF00003BF
:101830000AE000BF50EA010208BF704711F0004300
:1018400002D5404261EB41015FEA010C02BF8446D0
:101850000146002043F0B64308BFA3F18053A3F52F
:101860000003BCFA8CF2083AA3EBC25310DB01FA76
:1018700002FC634400FA02FCC2F12002BCF1004FFA
:1018800020FA02F243EB020008BF20F0010070478B
:1018900002F1200201FA02FCC2F1200250EA4C00DF
:1018A00021FA02F243EB020008BF20EADC70704725
:1018B0004FF0FF0C1CEAD0521EBF1CEAD15392EA33
:1018C0000C0F93EA0C0F6FD01A4480EA010C40020F
:1018D00018BF5FEA41211ED04FF0006343EA501069
:1018E00043EA5111A0FB01310CF00040B1F5000FAB
:1018F0003EBF490041EAD3715B0040EA010062F15A
:101900007F02FD2A1DD8B3F1004F40EBC25008BF43
:1019100020F00100704790F0000F0CF0004C08BF61
:1019200049024CEA502040EA51207F3AC2BFD2F12E
:10193000FF0340EAC250704740F400004FF000033C
:10194000013A5DDC12F1190FDCBF00F00040704776
:10195000C2F10002410021FA02F1C2F1200200FAB4
:1019600002FC5FEA310040F1000053EA4C0308BF7B
:1019700020EADC70704792F0000F00F0004C02BFCC
:10198000400010F4000F013AF9D040EA0C0093F047
:10199000000F01F0004C02BF490011F4000F013BA1
:1019A000F9D041EA0C018FE70CEAD15392EA0C0F0F
:1019B00018BF93EA0C0F0AD030F0004C18BF31F07A
:1019C000004CD8D180EA010000F00040704790F050
:1019D000000F17BF90F0004F084691F0000F91F0F4
:1019E000004F14D092EA0C0F01D142020FD193EABA
:1019F0000C0F03D14B0218BF084608D180EA010042
:101A000000F0004040F0FE4040F40000704740F01D
:101A1000FE4040F4400070474FF0FF0C1CEAD052EB
:101A20001EBF1CEAD15392EA0C0F93EA0C0F69D047
:101A3000A2EB030280EA010C49024FEA402037D0B2
:101A40004FF0805343EA111143EA10130CF00040A9
:101A50008B4238BF5B0042F17D024FF4000C8B4299
:101A600024BF5B1A40EA0C00B3EB510F24BFA3EB79
:101A7000510340EA5C00B3EB910F24BFA3EB910349
:101A800040EA9C00B3EBD10F24BFA3EBD10340EAA3
:101A9000DC001B0118BF5FEA1C1CE0D1FD2A3FF6E9
:101AA00050AF8B4240EBC25008BF20F0010070479E
:101AB0000CF0004C4CEA50207F32C2BFD2F1FF0341
:101AC00040EAC250704740F400004FF00003013A72
:101AD00037E792F0000F00F0004C02BF400010F416
:101AE000000F013AF9D040EA0C0093F0000F01F02A
:101AF000004C02BF490011F4000F013BF9D041EA4C
:101B00000C0195E70CEAD15392EA0C0F08D142027E
:101B10007FF47DAF93EA0C0F7FF470AF084676E751
:101B200093EA0C0F04D14B023FF44CAF08466EE72A
:101B300030F0004C18BF31F0004CCAD130F00042F8
:101B40007FF45CAF31F000437FF43CAF5FE700BF50
:101B500042000ED2B2F1FE4F0BD34FF09E03B3EB17
:101B6000126209D44FEA002343F0004323FA02F043
:101B700070474FF00000704712F1610F01D142022F
:101B800002D14FF0FF3070474FF00000704700BFA8
:101B900070B4840746D0541E002A41D0CDB203460B
:101BA00002E0621EE4B3144603F8015B9A07F8D121
:101BB000032C2ED9CDB245EA05250F2C45EA054563
:101BC00019D9264603F11002103E0F2E42F8105C80
:101BD00042F80C5C42F8085C42F8045C02F1100226
:101BE000F2D8A4F1100222F00F0204F00F04103218
:101BF000032C13440DD91E462246043A032A46F804
:101C0000045BFAD8221F22F003020432134404F0CA
:101C100003042CB1C9B21C4403F8011BA342FBD13D
:101C200070BC704714460346C2E700BF380000206E
:041C300080F0FA0244
:0400000300000C519C
:00000001FF
